{"contracts/Hello.sol":{"StudentDataset":{"abi":[{"inputs":[{"internalType":"string[]","name":"_courseNames","type":"string[]"},{"internalType":"string[]","name":"_dates","type":"string[]"},{"internalType":"string[]","name":"_certificateUrls","type":"string[]"},{"internalType":"string[]","name":"_instructorNames","type":"string[]"},{"internalType":"string[]","name":"_studentNames","type":"string[]"},{"internalType":"string[]","name":"_courseLengths","type":"string[]"}],"stateMutability":"nonpayable","type":"constructor"},{"inputs":[{"internalType":"string","name":"_courseName","type":"string"},{"internalType":"string","name":"_date","type":"string"},{"internalType":"string","name":"_certificateUrl","type":"string"},{"internalType":"string","name":"_instructorName","type":"string"},{"internalType":"string","name":"_studentName","type":"string"},{"internalType":"string","name":"_courseLength","type":"string"}],"name":"addStudentRecord","outputs":[],"stateMutability":"nonpayable","type":"function"},{"inputs":[],"name":"getRecordCount","outputs":[{"internalType":"uint256","name":"","type":"uint256"}],"stateMutability":"view","type":"function"},{"inputs":[{"internalType":"uint256","name":"index","type":"uint256"}],"name":"getStudentRecord","outputs":[{"internalType":"string","name":"courseName","type":"string"},{"internalType":"string","name":"date","type":"string"},{"internalType":"string","name":"certificateUrl","type":"string"},{"internalType":"string","name":"instructorName","type":"string"},{"internalType":"string","name":"studentName","type":"string"},{"internalType":"string","name":"courseLength","type":"string"}],"stateMutability":"view","type":"function"},{"inputs":[{"internalType":"uint256","name":"","type":"uint256"}],"name":"studentRecords","outputs":[{"internalType":"string","name":"courseName","type":"string"},{"internalType":"string","name":"date","type":"string"},{"internalType":"string","name":"certificateUrl","type":"string"},{"internalType":"string","name":"instructorName","type":"string"},{"internalType":"string","name":"studentName","type":"string"},{"internalType":"string","name":"courseLength","type":"string"}],"stateMutability":"view","type":"function"}],"evm":{"bytecode":{"linkReferences":{},"object":"60806040523480156200001157600080fd5b50604051620017d1380380620017d1833981810160405281019062000037919062000534565b845186511480156200004a575083518551145b801562000058575082518451145b801562000066575081518351145b801562000074575080518251145b620000b6576040517f08c379a0000000000000000000000000000000000000000000000000000000008152600401620000ad90620006a2565b60405180910390fd5b60005b8651811015620003735760006040518060c001604052808984815181106200010a577f4e487b7100000000000000000000000000000000000000000000000000000000600052603260045260246000fd5b6020026020010151815260200188848151811062000151577f4e487b7100000000000000000000000000000000000000000000000000000000600052603260045260246000fd5b6020026020010151815260200187848151811062000198577f4e487b7100000000000000000000000000000000000000000000000000000000600052603260045260246000fd5b60200260200101518152602001868481518110620001df577f4e487b7100000000000000000000000000000000000000000000000000000000600052603260045260246000fd5b6020026020010151815260200185848151811062000226577f4e487b7100000000000000000000000000000000000000000000000000000000600052603260045260246000fd5b602002602001015181526020018484815181106200026d577f4e487b7100000000000000000000000000000000000000000000000000000000600052603260045260246000fd5b602002602001015181525090806001815401808255809150506001900390600052602060002090600602016000909190919091506000820151816000019080519060200190620002bf92919062000380565b506020820151816001019080519060200190620002de92919062000380565b506040820151816002019080519060200190620002fd92919062000380565b5060608201518160030190805190602001906200031c92919062000380565b5060808201518160040190805190602001906200033b92919062000380565b5060a08201518160050190805190602001906200035a92919062000380565b50505080806200036a90620007e1565b915050620000b9565b50505050505050620008bc565b8280546200038e90620007ab565b90600052602060002090601f016020900481019282620003b25760008555620003fe565b82601f10620003cd57805160ff1916838001178555620003fe565b82800160010185558215620003fe579182015b82811115620003fd578251825591602001919060010190620003e0565b5b5090506200040d919062000411565b5090565b5b808211156200042c57600081600090555060010162000412565b5090565b6000620004476200044184620006f8565b620006c4565b9050808382526020820190508260005b858110156200048b578151850162000470888262000507565b84526020840193506020830192505060018101905062000457565b5050509392505050565b6000620004ac620004a68462000727565b620006c4565b905082815260208101848484011115620004c557600080fd5b620004d284828562000775565b509392505050565b600082601f830112620004ec57600080fd5b8151620004fe84826020860162000430565b91505092915050565b600082601f8301126200051957600080fd5b81516200052b84826020860162000495565b91505092915050565b60008060008060008060c087890312156200054e57600080fd5b600087015167ffffffffffffffff8111156200056957600080fd5b6200057789828a01620004da565b965050602087015167ffffffffffffffff8111156200059557600080fd5b620005a389828a01620004da565b955050604087015167ffffffffffffffff811115620005c157600080fd5b620005cf89828a01620004da565b945050606087015167ffffffffffffffff811115620005ed57600080fd5b620005fb89828a01620004da565b935050608087015167ffffffffffffffff8111156200061957600080fd5b6200062789828a01620004da565b92505060a087015167ffffffffffffffff8111156200064557600080fd5b6200065389828a01620004da565b9150509295509295509295565b60006200066f6018836200075a565b91507f4172726179206c656e67746873206d757374206d6174636800000000000000006000830152602082019050919050565b60006020820190508181036000830152620006bd8162000660565b9050919050565b6000604051905081810181811067ffffffffffffffff82111715620006ee57620006ed6200088d565b5b8060405250919050565b600067ffffffffffffffff8211156200071657620007156200088d565b5b602082029050602081019050919050565b600067ffffffffffffffff8211156200074557620007446200088d565b5b601f19601f8301169050602081019050919050565b600082825260208201905092915050565b6000819050919050565b60005b838110156200079557808201518184015260208101905062000778565b83811115620007a5576000848401525b50505050565b60006002820490506001821680620007c457607f821691505b60208210811415620007db57620007da6200085e565b5b50919050565b6000620007ee826200076b565b91507fffffffffffffffffffffffffffffffffffffffffffffffffffffffffffffffff8214156200082457620008236200082f565b5b600182019050919050565b7f4e487b7100000000000000000000000000000000000000000000000000000000600052601160045260246000fd5b7f4e487b7100000000000000000000000000000000000000000000000000000000600052602260045260246000fd5b7f4e487b7100000000000000000000000000000000000000000000000000000000600052604160045260246000fd5b610f0580620008cc6000396000f3fe608060405234801561001057600080fd5b506004361061004c5760003560e01c806315982a2a14610051578063c291207614610086578063ca267f28146100a2578063e91903a7146100c0575b600080fd5b61006b60048036038101906100669190610bd7565b6100f5565b60405161007d96959493929190610c88565b60405180910390f35b6100a0600480360381019061009b9190610abe565b610506565b005b6100aa610616565b6040516100b79190610d33565b60405180910390f35b6100da60048036038101906100d59190610bd7565b610622565b6040516100ec96959493929190610c88565b60405180910390f35b6060806060806060806000805490508710610145576040517f08c379a000000000000000000000000000000000000000000000000000000000815260040161013c90610d13565b60405180910390fd5b6000808881548110610180577f4e487b7100000000000000000000000000000000000000000000000000000000600052603260045260246000fd5b906000526020600020906006020190508060000181600101826002018360030184600401856005018580546101b490610e17565b80601f01602080910402602001604051908101604052809291908181526020018280546101e090610e17565b801561022d5780601f106102025761010080835404028352916020019161022d565b820191906000526020600020905b81548152906001019060200180831161021057829003601f168201915b5050505050955084805461024090610e17565b80601f016020809104026020016040519081016040528092919081815260200182805461026c90610e17565b80156102b95780601f1061028e576101008083540402835291602001916102b9565b820191906000526020600020905b81548152906001019060200180831161029c57829003601f168201915b505050505094508380546102cc90610e17565b80601f01602080910402602001604051908101604052809291908181526020018280546102f890610e17565b80156103455780601f1061031a57610100808354040283529160200191610345565b820191906000526020600020905b81548152906001019060200180831161032857829003601f168201915b5050505050935082805461035890610e17565b80601f016020809104026020016040519081016040528092919081815260200182805461038490610e17565b80156103d15780601f106103a6576101008083540402835291602001916103d1565b820191906000526020600020905b8154815290600101906020018083116103b457829003601f168201915b505050505092508180546103e490610e17565b80601f016020809104026020016040519081016040528092919081815260200182805461041090610e17565b801561045d5780601f106104325761010080835404028352916020019161045d565b820191906000526020600020905b81548152906001019060200180831161044057829003601f168201915b5050505050915080805461047090610e17565b80601f016020809104026020016040519081016040528092919081815260200182805461049c90610e17565b80156104e95780601f106104be576101008083540402835291602001916104e9565b820191906000526020600020905b8154815290600101906020018083116104cc57829003601f168201915b505050505090509650965096509650965096505091939550919395565b60006040518060c00160405280888152602001878152602001868152602001858152602001848152602001838152509080600181540180825580915050600190039060005260206000209060060201600090919091909150600082015181600001908051906020019061057a92919061099e565b50602082015181600101908051906020019061059792919061099e565b5060408201518160020190805190602001906105b492919061099e565b5060608201518160030190805190602001906105d192919061099e565b5060808201518160040190805190602001906105ee92919061099e565b5060a082015181600501908051906020019061060b92919061099e565b505050505050505050565b60008080549050905090565b6000818154811061063257600080fd5b906000526020600020906006020160009150905080600001805461065590610e17565b80601f016020809104026020016040519081016040528092919081815260200182805461068190610e17565b80156106ce5780601f106106a3576101008083540402835291602001916106ce565b820191906000526020600020905b8154815290600101906020018083116106b157829003601f168201915b5050505050908060010180546106e390610e17565b80601f016020809104026020016040519081016040528092919081815260200182805461070f90610e17565b801561075c5780601f106107315761010080835404028352916020019161075c565b820191906000526020600020905b81548152906001019060200180831161073f57829003601f168201915b50505050509080600201805461077190610e17565b80601f016020809104026020016040519081016040528092919081815260200182805461079d90610e17565b80156107ea5780601f106107bf576101008083540402835291602001916107ea565b820191906000526020600020905b8154815290600101906020018083116107cd57829003601f168201915b5050505050908060030180546107ff90610e17565b80601f016020809104026020016040519081016040528092919081815260200182805461082b90610e17565b80156108785780601f1061084d57610100808354040283529160200191610878565b820191906000526020600020905b81548152906001019060200180831161085b57829003601f168201915b50505050509080600401805461088d90610e17565b80601f01602080910402602001604051908101604052809291908181526020018280546108b990610e17565b80156109065780601f106108db57610100808354040283529160200191610906565b820191906000526020600020905b8154815290600101906020018083116108e957829003601f168201915b50505050509080600501805461091b90610e17565b80601f016020809104026020016040519081016040528092919081815260200182805461094790610e17565b80156109945780601f1061096957610100808354040283529160200191610994565b820191906000526020600020905b81548152906001019060200180831161097757829003601f168201915b5050505050905086565b8280546109aa90610e17565b90600052602060002090601f0160209004810192826109cc5760008555610a13565b82601f106109e557805160ff1916838001178555610a13565b82800160010185558215610a13579182015b82811115610a125782518255916020019190600101906109f7565b5b509050610a209190610a24565b5090565b5b80821115610a3d576000816000905550600101610a25565b5090565b6000610a54610a4f84610d7f565b610d4e565b905082815260208101848484011115610a6c57600080fd5b610a77848285610dd5565b509392505050565b600082601f830112610a9057600080fd5b8135610aa0848260208601610a41565b91505092915050565b600081359050610ab881610eb8565b92915050565b60008060008060008060c08789031215610ad757600080fd5b600087013567ffffffffffffffff811115610af157600080fd5b610afd89828a01610a7f565b965050602087013567ffffffffffffffff811115610b1a57600080fd5b610b2689828a01610a7f565b955050604087013567ffffffffffffffff811115610b4357600080fd5b610b4f89828a01610a7f565b945050606087013567ffffffffffffffff811115610b6c57600080fd5b610b7889828a01610a7f565b935050608087013567ffffffffffffffff811115610b9557600080fd5b610ba189828a01610a7f565b92505060a087013567ffffffffffffffff811115610bbe57600080fd5b610bca89828a01610a7f565b9150509295509295509295565b600060208284031215610be957600080fd5b6000610bf784828501610aa9565b91505092915050565b6000610c0b82610daf565b610c158185610dba565b9350610c25818560208601610de4565b610c2e81610ea7565b840191505092915050565b6000610c46600d83610dba565b91507f496e76616c696420696e646578000000000000000000000000000000000000006000830152602082019050919050565b610c8281610dcb565b82525050565b600060c0820190508181036000830152610ca28189610c00565b90508181036020830152610cb68188610c00565b90508181036040830152610cca8187610c00565b90508181036060830152610cde8186610c00565b90508181036080830152610cf28185610c00565b905081810360a0830152610d068184610c00565b9050979650505050505050565b60006020820190508181036000830152610d2c81610c39565b9050919050565b6000602082019050610d486000830184610c79565b92915050565b6000604051905081810181811067ffffffffffffffff82111715610d7557610d74610e78565b5b8060405250919050565b600067ffffffffffffffff821115610d9a57610d99610e78565b5b601f19601f8301169050602081019050919050565b600081519050919050565b600082825260208201905092915050565b6000819050919050565b82818337600083830152505050565b60005b83811015610e02578082015181840152602081019050610de7565b83811115610e11576000848401525b50505050565b60006002820490506001821680610e2f57607f821691505b60208210811415610e4357610e42610e49565b5b50919050565b7f4e487b7100000000000000000000000000000000000000000000000000000000600052602260045260246000fd5b7f4e487b7100000000000000000000000000000000000000000000000000000000600052604160045260246000fd5b6000601f19601f8301169050919050565b610ec181610dcb565b8114610ecc57600080fd5b5056fea26469706673582212204eccbf1ff6db9b2ebbdc10313958b5c2d1b8852fd28fb382287dc1d479757a6564736f6c63430008000033","opcodes":"PUSH1 0x80 PUSH1 0x40 MSTORE CALLVALUE DUP1 ISZERO PUSH3 0x11 JUMPI PUSH1 0x0 DUP1 REVERT JUMPDEST POP PUSH1 0x40 MLOAD PUSH3 0x17D1 CODESIZE SUB DUP1 PUSH3 0x17D1 DUP4 CODECOPY DUP2 DUP2 ADD PUSH1 0x40 MSTORE DUP2 ADD SWAP1 PUSH3 0x37 SWAP2 SWAP1 PUSH3 0x534 JUMP JUMPDEST DUP5 MLOAD DUP7 MLOAD EQ DUP1 ISZERO PUSH3 0x4A JUMPI POP DUP4 MLOAD DUP6 MLOAD EQ JUMPDEST DUP1 ISZERO PUSH3 0x58 JUMPI POP DUP3 MLOAD DUP5 MLOAD EQ JUMPDEST DUP1 ISZERO PUSH3 0x66 JUMPI POP DUP2 MLOAD DUP4 MLOAD EQ JUMPDEST DUP1 ISZERO PUSH3 0x74 JUMPI POP DUP1 MLOAD DUP3 MLOAD EQ JUMPDEST PUSH3 0xB6 JUMPI PUSH1 0x40 MLOAD PUSH32 0x8C379A000000000000000000000000000000000000000000000000000000000 DUP2 MSTORE PUSH1 0x4 ADD PUSH3 0xAD SWAP1 PUSH3 0x6A2 JUMP JUMPDEST PUSH1 0x40 MLOAD DUP1 SWAP2 SUB SWAP1 REVERT JUMPDEST PUSH1 0x0 JUMPDEST DUP7 MLOAD DUP2 LT ISZERO PUSH3 0x373 JUMPI PUSH1 0x0 PUSH1 0x40 MLOAD DUP1 PUSH1 0xC0 ADD PUSH1 0x40 MSTORE DUP1 DUP10 DUP5 DUP2 MLOAD DUP2 LT PUSH3 0x10A JUMPI PUSH32 0x4E487B7100000000000000000000000000000000000000000000000000000000 PUSH1 0x0 MSTORE PUSH1 0x32 PUSH1 0x4 MSTORE PUSH1 0x24 PUSH1 0x0 REVERT JUMPDEST PUSH1 0x20 MUL PUSH1 0x20 ADD ADD MLOAD DUP2 MSTORE PUSH1 0x20 ADD DUP9 DUP5 DUP2 MLOAD DUP2 LT PUSH3 0x151 JUMPI PUSH32 0x4E487B7100000000000000000000000000000000000000000000000000000000 PUSH1 0x0 MSTORE PUSH1 0x32 PUSH1 0x4 MSTORE PUSH1 0x24 PUSH1 0x0 REVERT JUMPDEST PUSH1 0x20 MUL PUSH1 0x20 ADD ADD MLOAD DUP2 MSTORE PUSH1 0x20 ADD DUP8 DUP5 DUP2 MLOAD DUP2 LT PUSH3 0x198 JUMPI PUSH32 0x4E487B7100000000000000000000000000000000000000000000000000000000 PUSH1 0x0 MSTORE PUSH1 0x32 PUSH1 0x4 MSTORE PUSH1 0x24 PUSH1 0x0 REVERT JUMPDEST PUSH1 0x20 MUL PUSH1 0x20 ADD ADD MLOAD DUP2 MSTORE PUSH1 0x20 ADD DUP7 DUP5 DUP2 MLOAD DUP2 LT PUSH3 0x1DF JUMPI PUSH32 0x4E487B7100000000000000000000000000000000000000000000000000000000 PUSH1 0x0 MSTORE PUSH1 0x32 PUSH1 0x4 MSTORE PUSH1 0x24 PUSH1 0x0 REVERT JUMPDEST PUSH1 0x20 MUL PUSH1 0x20 ADD ADD MLOAD DUP2 MSTORE PUSH1 0x20 ADD DUP6 DUP5 DUP2 MLOAD DUP2 LT PUSH3 0x226 JUMPI PUSH32 0x4E487B7100000000000000000000000000000000000000000000000000000000 PUSH1 0x0 MSTORE PUSH1 0x32 PUSH1 0x4 MSTORE PUSH1 0x24 PUSH1 0x0 REVERT JUMPDEST PUSH1 0x20 MUL PUSH1 0x20 ADD ADD MLOAD DUP2 MSTORE PUSH1 0x20 ADD DUP5 DUP5 DUP2 MLOAD DUP2 LT PUSH3 0x26D JUMPI PUSH32 0x4E487B7100000000000000000000000000000000000000000000000000000000 PUSH1 0x0 MSTORE PUSH1 0x32 PUSH1 0x4 MSTORE PUSH1 0x24 PUSH1 0x0 REVERT JUMPDEST PUSH1 0x20 MUL PUSH1 0x20 ADD ADD MLOAD DUP2 MSTORE POP SWAP1 DUP1 PUSH1 0x1 DUP2 SLOAD ADD DUP1 DUP3 SSTORE DUP1 SWAP2 POP POP PUSH1 0x1 SWAP1 SUB SWAP1 PUSH1 0x0 MSTORE PUSH1 0x20 PUSH1 0x0 KECCAK256 SWAP1 PUSH1 0x6 MUL ADD PUSH1 0x0 SWAP1 SWAP2 SWAP1 SWAP2 SWAP1 SWAP2 POP PUSH1 0x0 DUP3 ADD MLOAD DUP2 PUSH1 0x0 ADD SWAP1 DUP1 MLOAD SWAP1 PUSH1 0x20 ADD SWAP1 PUSH3 0x2BF SWAP3 SWAP2 SWAP1 PUSH3 0x380 JUMP JUMPDEST POP PUSH1 0x20 DUP3 ADD MLOAD DUP2 PUSH1 0x1 ADD SWAP1 DUP1 MLOAD SWAP1 PUSH1 0x20 ADD SWAP1 PUSH3 0x2DE SWAP3 SWAP2 SWAP1 PUSH3 0x380 JUMP JUMPDEST POP PUSH1 0x40 DUP3 ADD MLOAD DUP2 PUSH1 0x2 ADD SWAP1 DUP1 MLOAD SWAP1 PUSH1 0x20 ADD SWAP1 PUSH3 0x2FD SWAP3 SWAP2 SWAP1 PUSH3 0x380 JUMP JUMPDEST POP PUSH1 0x60 DUP3 ADD MLOAD DUP2 PUSH1 0x3 ADD SWAP1 DUP1 MLOAD SWAP1 PUSH1 0x20 ADD SWAP1 PUSH3 0x31C SWAP3 SWAP2 SWAP1 PUSH3 0x380 JUMP JUMPDEST POP PUSH1 0x80 DUP3 ADD MLOAD DUP2 PUSH1 0x4 ADD SWAP1 DUP1 MLOAD SWAP1 PUSH1 0x20 ADD SWAP1 PUSH3 0x33B SWAP3 SWAP2 SWAP1 PUSH3 0x380 JUMP JUMPDEST POP PUSH1 0xA0 DUP3 ADD MLOAD DUP2 PUSH1 0x5 ADD SWAP1 DUP1 MLOAD SWAP1 PUSH1 0x20 ADD SWAP1 PUSH3 0x35A SWAP3 SWAP2 SWAP1 PUSH3 0x380 JUMP JUMPDEST POP POP POP DUP1 DUP1 PUSH3 0x36A SWAP1 PUSH3 0x7E1 JUMP JUMPDEST SWAP2 POP POP PUSH3 0xB9 JUMP JUMPDEST POP POP POP POP POP POP POP PUSH3 0x8BC JUMP JUMPDEST DUP3 DUP1 SLOAD PUSH3 0x38E SWAP1 PUSH3 0x7AB JUMP JUMPDEST SWAP1 PUSH1 0x0 MSTORE PUSH1 0x20 PUSH1 0x0 KECCAK256 SWAP1 PUSH1 0x1F ADD PUSH1 0x20 SWAP1 DIV DUP2 ADD SWAP3 DUP3 PUSH3 0x3B2 JUMPI PUSH1 0x0 DUP6 SSTORE PUSH3 0x3FE JUMP JUMPDEST DUP3 PUSH1 0x1F LT PUSH3 0x3CD JUMPI DUP1 MLOAD PUSH1 0xFF NOT AND DUP4 DUP1 ADD OR DUP6 SSTORE PUSH3 0x3FE JUMP JUMPDEST DUP3 DUP1 ADD PUSH1 0x1 ADD DUP6 SSTORE DUP3 ISZERO PUSH3 0x3FE JUMPI SWAP2 DUP3 ADD JUMPDEST DUP3 DUP2 GT ISZERO PUSH3 0x3FD JUMPI DUP3 MLOAD DUP3 SSTORE SWAP2 PUSH1 0x20 ADD SWAP2 SWAP1 PUSH1 0x1 ADD SWAP1 PUSH3 0x3E0 JUMP JUMPDEST JUMPDEST POP SWAP1 POP PUSH3 0x40D SWAP2 SWAP1 PUSH3 0x411 JUMP JUMPDEST POP SWAP1 JUMP JUMPDEST JUMPDEST DUP1 DUP3 GT ISZERO PUSH3 0x42C JUMPI PUSH1 0x0 DUP2 PUSH1 0x0 SWAP1 SSTORE POP PUSH1 0x1 ADD PUSH3 0x412 JUMP JUMPDEST POP SWAP1 JUMP JUMPDEST PUSH1 0x0 PUSH3 0x447 PUSH3 0x441 DUP5 PUSH3 0x6F8 JUMP JUMPDEST PUSH3 0x6C4 JUMP JUMPDEST SWAP1 POP DUP1 DUP4 DUP3 MSTORE PUSH1 0x20 DUP3 ADD SWAP1 POP DUP3 PUSH1 0x0 JUMPDEST DUP6 DUP2 LT ISZERO PUSH3 0x48B JUMPI DUP2 MLOAD DUP6 ADD PUSH3 0x470 DUP9 DUP3 PUSH3 0x507 JUMP JUMPDEST DUP5 MSTORE PUSH1 0x20 DUP5 ADD SWAP4 POP PUSH1 0x20 DUP4 ADD SWAP3 POP POP PUSH1 0x1 DUP2 ADD SWAP1 POP PUSH3 0x457 JUMP JUMPDEST POP POP POP SWAP4 SWAP3 POP POP POP JUMP JUMPDEST PUSH1 0x0 PUSH3 0x4AC PUSH3 0x4A6 DUP5 PUSH3 0x727 JUMP JUMPDEST PUSH3 0x6C4 JUMP JUMPDEST SWAP1 POP DUP3 DUP2 MSTORE PUSH1 0x20 DUP2 ADD DUP5 DUP5 DUP5 ADD GT ISZERO PUSH3 0x4C5 JUMPI PUSH1 0x0 DUP1 REVERT JUMPDEST PUSH3 0x4D2 DUP5 DUP3 DUP6 PUSH3 0x775 JUMP JUMPDEST POP SWAP4 SWAP3 POP POP POP JUMP JUMPDEST PUSH1 0x0 DUP3 PUSH1 0x1F DUP4 ADD SLT PUSH3 0x4EC JUMPI PUSH1 0x0 DUP1 REVERT JUMPDEST DUP2 MLOAD PUSH3 0x4FE DUP5 DUP3 PUSH1 0x20 DUP7 ADD PUSH3 0x430 JUMP JUMPDEST SWAP2 POP POP SWAP3 SWAP2 POP POP JUMP JUMPDEST PUSH1 0x0 DUP3 PUSH1 0x1F DUP4 ADD SLT PUSH3 0x519 JUMPI PUSH1 0x0 DUP1 REVERT JUMPDEST DUP2 MLOAD PUSH3 0x52B DUP5 DUP3 PUSH1 0x20 DUP7 ADD PUSH3 0x495 JUMP JUMPDEST SWAP2 POP POP SWAP3 SWAP2 POP POP JUMP JUMPDEST PUSH1 0x0 DUP1 PUSH1 0x0 DUP1 PUSH1 0x0 DUP1 PUSH1 0xC0 DUP8 DUP10 SUB SLT ISZERO PUSH3 0x54E JUMPI PUSH1 0x0 DUP1 REVERT JUMPDEST PUSH1 0x0 DUP8 ADD MLOAD PUSH8 0xFFFFFFFFFFFFFFFF DUP2 GT ISZERO PUSH3 0x569 JUMPI PUSH1 0x0 DUP1 REVERT JUMPDEST PUSH3 0x577 DUP10 DUP3 DUP11 ADD PUSH3 0x4DA JUMP JUMPDEST SWAP7 POP POP PUSH1 0x20 DUP8 ADD MLOAD PUSH8 0xFFFFFFFFFFFFFFFF DUP2 GT ISZERO PUSH3 0x595 JUMPI PUSH1 0x0 DUP1 REVERT JUMPDEST PUSH3 0x5A3 DUP10 DUP3 DUP11 ADD PUSH3 0x4DA JUMP JUMPDEST SWAP6 POP POP PUSH1 0x40 DUP8 ADD MLOAD PUSH8 0xFFFFFFFFFFFFFFFF DUP2 GT ISZERO PUSH3 0x5C1 JUMPI PUSH1 0x0 DUP1 REVERT JUMPDEST PUSH3 0x5CF DUP10 DUP3 DUP11 ADD PUSH3 0x4DA JUMP JUMPDEST SWAP5 POP POP PUSH1 0x60 DUP8 ADD MLOAD PUSH8 0xFFFFFFFFFFFFFFFF DUP2 GT ISZERO PUSH3 0x5ED JUMPI PUSH1 0x0 DUP1 REVERT JUMPDEST PUSH3 0x5FB DUP10 DUP3 DUP11 ADD PUSH3 0x4DA JUMP JUMPDEST SWAP4 POP POP PUSH1 0x80 DUP8 ADD MLOAD PUSH8 0xFFFFFFFFFFFFFFFF DUP2 GT ISZERO PUSH3 0x619 JUMPI PUSH1 0x0 DUP1 REVERT JUMPDEST PUSH3 0x627 DUP10 DUP3 DUP11 ADD PUSH3 0x4DA JUMP JUMPDEST SWAP3 POP POP PUSH1 0xA0 DUP8 ADD MLOAD PUSH8 0xFFFFFFFFFFFFFFFF DUP2 GT ISZERO PUSH3 0x645 JUMPI PUSH1 0x0 DUP1 REVERT JUMPDEST PUSH3 0x653 DUP10 DUP3 DUP11 ADD PUSH3 0x4DA JUMP JUMPDEST SWAP2 POP POP SWAP3 SWAP6 POP SWAP3 SWAP6 POP SWAP3 SWAP6 JUMP JUMPDEST PUSH1 0x0 PUSH3 0x66F PUSH1 0x18 DUP4 PUSH3 0x75A JUMP JUMPDEST SWAP2 POP PUSH32 0x4172726179206C656E67746873206D757374206D617463680000000000000000 PUSH1 0x0 DUP4 ADD MSTORE PUSH1 0x20 DUP3 ADD SWAP1 POP SWAP2 SWAP1 POP JUMP JUMPDEST PUSH1 0x0 PUSH1 0x20 DUP3 ADD SWAP1 POP DUP2 DUP2 SUB PUSH1 0x0 DUP4 ADD MSTORE PUSH3 0x6BD DUP2 PUSH3 0x660 JUMP JUMPDEST SWAP1 POP SWAP2 SWAP1 POP JUMP JUMPDEST PUSH1 0x0 PUSH1 0x40 MLOAD SWAP1 POP DUP2 DUP2 ADD DUP2 DUP2 LT PUSH8 0xFFFFFFFFFFFFFFFF DUP3 GT OR ISZERO PUSH3 0x6EE JUMPI PUSH3 0x6ED PUSH3 0x88D JUMP JUMPDEST JUMPDEST DUP1 PUSH1 0x40 MSTORE POP SWAP2 SWAP1 POP JUMP JUMPDEST PUSH1 0x0 PUSH8 0xFFFFFFFFFFFFFFFF DUP3 GT ISZERO PUSH3 0x716 JUMPI PUSH3 0x715 PUSH3 0x88D JUMP JUMPDEST JUMPDEST PUSH1 0x20 DUP3 MUL SWAP1 POP PUSH1 0x20 DUP2 ADD SWAP1 POP SWAP2 SWAP1 POP JUMP JUMPDEST PUSH1 0x0 PUSH8 0xFFFFFFFFFFFFFFFF DUP3 GT ISZERO PUSH3 0x745 JUMPI PUSH3 0x744 PUSH3 0x88D JUMP JUMPDEST JUMPDEST PUSH1 0x1F NOT PUSH1 0x1F DUP4 ADD AND SWAP1 POP PUSH1 0x20 DUP2 ADD SWAP1 POP SWAP2 SWAP1 POP JUMP JUMPDEST PUSH1 0x0 DUP3 DUP3 MSTORE PUSH1 0x20 DUP3 ADD SWAP1 POP SWAP3 SWAP2 POP POP JUMP JUMPDEST PUSH1 0x0 DUP2 SWAP1 POP SWAP2 SWAP1 POP JUMP JUMPDEST PUSH1 0x0 JUMPDEST DUP4 DUP2 LT ISZERO PUSH3 0x795 JUMPI DUP1 DUP3 ADD MLOAD DUP2 DUP5 ADD MSTORE PUSH1 0x20 DUP2 ADD SWAP1 POP PUSH3 0x778 JUMP JUMPDEST DUP4 DUP2 GT ISZERO PUSH3 0x7A5 JUMPI PUSH1 0x0 DUP5 DUP5 ADD MSTORE JUMPDEST POP POP POP POP JUMP JUMPDEST PUSH1 0x0 PUSH1 0x2 DUP3 DIV SWAP1 POP PUSH1 0x1 DUP3 AND DUP1 PUSH3 0x7C4 JUMPI PUSH1 0x7F DUP3 AND SWAP2 POP JUMPDEST PUSH1 0x20 DUP3 LT DUP2 EQ ISZERO PUSH3 0x7DB JUMPI PUSH3 0x7DA PUSH3 0x85E JUMP JUMPDEST JUMPDEST POP SWAP2 SWAP1 POP JUMP JUMPDEST PUSH1 0x0 PUSH3 0x7EE DUP3 PUSH3 0x76B JUMP JUMPDEST SWAP2 POP PUSH32 0xFFFFFFFFFFFFFFFFFFFFFFFFFFFFFFFFFFFFFFFFFFFFFFFFFFFFFFFFFFFFFFFF DUP3 EQ ISZERO PUSH3 0x824 JUMPI PUSH3 0x823 PUSH3 0x82F JUMP JUMPDEST JUMPDEST PUSH1 0x1 DUP3 ADD SWAP1 POP SWAP2 SWAP1 POP JUMP JUMPDEST PUSH32 0x4E487B7100000000000000000000000000000000000000000000000000000000 PUSH1 0x0 MSTORE PUSH1 0x11 PUSH1 0x4 MSTORE PUSH1 0x24 PUSH1 0x0 REVERT JUMPDEST PUSH32 0x4E487B7100000000000000000000000000000000000000000000000000000000 PUSH1 0x0 MSTORE PUSH1 0x22 PUSH1 0x4 MSTORE PUSH1 0x24 PUSH1 0x0 REVERT JUMPDEST PUSH32 0x4E487B7100000000000000000000000000000000000000000000000000000000 PUSH1 0x0 MSTORE PUSH1 0x41 PUSH1 0x4 MSTORE PUSH1 0x24 PUSH1 0x0 REVERT JUMPDEST PUSH2 0xF05 DUP1 PUSH3 0x8CC PUSH1 0x0 CODECOPY PUSH1 0x0 RETURN INVALID PUSH1 0x80 PUSH1 0x40 MSTORE CALLVALUE DUP1 ISZERO PUSH2 0x10 JUMPI PUSH1 0x0 DUP1 REVERT JUMPDEST POP PUSH1 0x4 CALLDATASIZE LT PUSH2 0x4C JUMPI PUSH1 0x0 CALLDATALOAD PUSH1 0xE0 SHR DUP1 PUSH4 0x15982A2A EQ PUSH2 0x51 JUMPI DUP1 PUSH4 0xC2912076 EQ PUSH2 0x86 JUMPI DUP1 PUSH4 0xCA267F28 EQ PUSH2 0xA2 JUMPI DUP1 PUSH4 0xE91903A7 EQ PUSH2 0xC0 JUMPI JUMPDEST PUSH1 0x0 DUP1 REVERT JUMPDEST PUSH2 0x6B PUSH1 0x4 DUP1 CALLDATASIZE SUB DUP2 ADD SWAP1 PUSH2 0x66 SWAP2 SWAP1 PUSH2 0xBD7 JUMP JUMPDEST PUSH2 0xF5 JUMP JUMPDEST PUSH1 0x40 MLOAD PUSH2 0x7D SWAP7 SWAP6 SWAP5 SWAP4 SWAP3 SWAP2 SWAP1 PUSH2 0xC88 JUMP JUMPDEST PUSH1 0x40 MLOAD DUP1 SWAP2 SUB SWAP1 RETURN JUMPDEST PUSH2 0xA0 PUSH1 0x4 DUP1 CALLDATASIZE SUB DUP2 ADD SWAP1 PUSH2 0x9B SWAP2 SWAP1 PUSH2 0xABE JUMP JUMPDEST PUSH2 0x506 JUMP JUMPDEST STOP JUMPDEST PUSH2 0xAA PUSH2 0x616 JUMP JUMPDEST PUSH1 0x40 MLOAD PUSH2 0xB7 SWAP2 SWAP1 PUSH2 0xD33 JUMP JUMPDEST PUSH1 0x40 MLOAD DUP1 SWAP2 SUB SWAP1 RETURN JUMPDEST PUSH2 0xDA PUSH1 0x4 DUP1 CALLDATASIZE SUB DUP2 ADD SWAP1 PUSH2 0xD5 SWAP2 SWAP1 PUSH2 0xBD7 JUMP JUMPDEST PUSH2 0x622 JUMP JUMPDEST PUSH1 0x40 MLOAD PUSH2 0xEC SWAP7 SWAP6 SWAP5 SWAP4 SWAP3 SWAP2 SWAP1 PUSH2 0xC88 JUMP JUMPDEST PUSH1 0x40 MLOAD DUP1 SWAP2 SUB SWAP1 RETURN JUMPDEST PUSH1 0x60 DUP1 PUSH1 0x60 DUP1 PUSH1 0x60 DUP1 PUSH1 0x0 DUP1 SLOAD SWAP1 POP DUP8 LT PUSH2 0x145 JUMPI PUSH1 0x40 MLOAD PUSH32 0x8C379A000000000000000000000000000000000000000000000000000000000 DUP2 MSTORE PUSH1 0x4 ADD PUSH2 0x13C SWAP1 PUSH2 0xD13 JUMP JUMPDEST PUSH1 0x40 MLOAD DUP1 SWAP2 SUB SWAP1 REVERT JUMPDEST PUSH1 0x0 DUP1 DUP9 DUP2 SLOAD DUP2 LT PUSH2 0x180 JUMPI PUSH32 0x4E487B7100000000000000000000000000000000000000000000000000000000 PUSH1 0x0 MSTORE PUSH1 0x32 PUSH1 0x4 MSTORE PUSH1 0x24 PUSH1 0x0 REVERT JUMPDEST SWAP1 PUSH1 0x0 MSTORE PUSH1 0x20 PUSH1 0x0 KECCAK256 SWAP1 PUSH1 0x6 MUL ADD SWAP1 POP DUP1 PUSH1 0x0 ADD DUP2 PUSH1 0x1 ADD DUP3 PUSH1 0x2 ADD DUP4 PUSH1 0x3 ADD DUP5 PUSH1 0x4 ADD DUP6 PUSH1 0x5 ADD DUP6 DUP1 SLOAD PUSH2 0x1B4 SWAP1 PUSH2 0xE17 JUMP JUMPDEST DUP1 PUSH1 0x1F ADD PUSH1 0x20 DUP1 SWAP2 DIV MUL PUSH1 0x20 ADD PUSH1 0x40 MLOAD SWAP1 DUP2 ADD PUSH1 0x40 MSTORE DUP1 SWAP3 SWAP2 SWAP1 DUP2 DUP2 MSTORE PUSH1 0x20 ADD DUP3 DUP1 SLOAD PUSH2 0x1E0 SWAP1 PUSH2 0xE17 JUMP JUMPDEST DUP1 ISZERO PUSH2 0x22D JUMPI DUP1 PUSH1 0x1F LT PUSH2 0x202 JUMPI PUSH2 0x100 DUP1 DUP4 SLOAD DIV MUL DUP4 MSTORE SWAP2 PUSH1 0x20 ADD SWAP2 PUSH2 0x22D JUMP JUMPDEST DUP3 ADD SWAP2 SWAP1 PUSH1 0x0 MSTORE PUSH1 0x20 PUSH1 0x0 KECCAK256 SWAP1 JUMPDEST DUP2 SLOAD DUP2 MSTORE SWAP1 PUSH1 0x1 ADD SWAP1 PUSH1 0x20 ADD DUP1 DUP4 GT PUSH2 0x210 JUMPI DUP3 SWAP1 SUB PUSH1 0x1F AND DUP3 ADD SWAP2 JUMPDEST POP POP POP POP POP SWAP6 POP DUP5 DUP1 SLOAD PUSH2 0x240 SWAP1 PUSH2 0xE17 JUMP JUMPDEST DUP1 PUSH1 0x1F ADD PUSH1 0x20 DUP1 SWAP2 DIV MUL PUSH1 0x20 ADD PUSH1 0x40 MLOAD SWAP1 DUP2 ADD PUSH1 0x40 MSTORE DUP1 SWAP3 SWAP2 SWAP1 DUP2 DUP2 MSTORE PUSH1 0x20 ADD DUP3 DUP1 SLOAD PUSH2 0x26C SWAP1 PUSH2 0xE17 JUMP JUMPDEST DUP1 ISZERO PUSH2 0x2B9 JUMPI DUP1 PUSH1 0x1F LT PUSH2 0x28E JUMPI PUSH2 0x100 DUP1 DUP4 SLOAD DIV MUL DUP4 MSTORE SWAP2 PUSH1 0x20 ADD SWAP2 PUSH2 0x2B9 JUMP JUMPDEST DUP3 ADD SWAP2 SWAP1 PUSH1 0x0 MSTORE PUSH1 0x20 PUSH1 0x0 KECCAK256 SWAP1 JUMPDEST DUP2 SLOAD DUP2 MSTORE SWAP1 PUSH1 0x1 ADD SWAP1 PUSH1 0x20 ADD DUP1 DUP4 GT PUSH2 0x29C JUMPI DUP3 SWAP1 SUB PUSH1 0x1F AND DUP3 ADD SWAP2 JUMPDEST POP POP POP POP POP SWAP5 POP DUP4 DUP1 SLOAD PUSH2 0x2CC SWAP1 PUSH2 0xE17 JUMP JUMPDEST DUP1 PUSH1 0x1F ADD PUSH1 0x20 DUP1 SWAP2 DIV MUL PUSH1 0x20 ADD PUSH1 0x40 MLOAD SWAP1 DUP2 ADD PUSH1 0x40 MSTORE DUP1 SWAP3 SWAP2 SWAP1 DUP2 DUP2 MSTORE PUSH1 0x20 ADD DUP3 DUP1 SLOAD PUSH2 0x2F8 SWAP1 PUSH2 0xE17 JUMP JUMPDEST DUP1 ISZERO PUSH2 0x345 JUMPI DUP1 PUSH1 0x1F LT PUSH2 0x31A JUMPI PUSH2 0x100 DUP1 DUP4 SLOAD DIV MUL DUP4 MSTORE SWAP2 PUSH1 0x20 ADD SWAP2 PUSH2 0x345 JUMP JUMPDEST DUP3 ADD SWAP2 SWAP1 PUSH1 0x0 MSTORE PUSH1 0x20 PUSH1 0x0 KECCAK256 SWAP1 JUMPDEST DUP2 SLOAD DUP2 MSTORE SWAP1 PUSH1 0x1 ADD SWAP1 PUSH1 0x20 ADD DUP1 DUP4 GT PUSH2 0x328 JUMPI DUP3 SWAP1 SUB PUSH1 0x1F AND DUP3 ADD SWAP2 JUMPDEST POP POP POP POP POP SWAP4 POP DUP3 DUP1 SLOAD PUSH2 0x358 SWAP1 PUSH2 0xE17 JUMP JUMPDEST DUP1 PUSH1 0x1F ADD PUSH1 0x20 DUP1 SWAP2 DIV MUL PUSH1 0x20 ADD PUSH1 0x40 MLOAD SWAP1 DUP2 ADD PUSH1 0x40 MSTORE DUP1 SWAP3 SWAP2 SWAP1 DUP2 DUP2 MSTORE PUSH1 0x20 ADD DUP3 DUP1 SLOAD PUSH2 0x384 SWAP1 PUSH2 0xE17 JUMP JUMPDEST DUP1 ISZERO PUSH2 0x3D1 JUMPI DUP1 PUSH1 0x1F LT PUSH2 0x3A6 JUMPI PUSH2 0x100 DUP1 DUP4 SLOAD DIV MUL DUP4 MSTORE SWAP2 PUSH1 0x20 ADD SWAP2 PUSH2 0x3D1 JUMP JUMPDEST DUP3 ADD SWAP2 SWAP1 PUSH1 0x0 MSTORE PUSH1 0x20 PUSH1 0x0 KECCAK256 SWAP1 JUMPDEST DUP2 SLOAD DUP2 MSTORE SWAP1 PUSH1 0x1 ADD SWAP1 PUSH1 0x20 ADD DUP1 DUP4 GT PUSH2 0x3B4 JUMPI DUP3 SWAP1 SUB PUSH1 0x1F AND DUP3 ADD SWAP2 JUMPDEST POP POP POP POP POP SWAP3 POP DUP2 DUP1 SLOAD PUSH2 0x3E4 SWAP1 PUSH2 0xE17 JUMP JUMPDEST DUP1 PUSH1 0x1F ADD PUSH1 0x20 DUP1 SWAP2 DIV MUL PUSH1 0x20 ADD PUSH1 0x40 MLOAD SWAP1 DUP2 ADD PUSH1 0x40 MSTORE DUP1 SWAP3 SWAP2 SWAP1 DUP2 DUP2 MSTORE PUSH1 0x20 ADD DUP3 DUP1 SLOAD PUSH2 0x410 SWAP1 PUSH2 0xE17 JUMP JUMPDEST DUP1 ISZERO PUSH2 0x45D JUMPI DUP1 PUSH1 0x1F LT PUSH2 0x432 JUMPI PUSH2 0x100 DUP1 DUP4 SLOAD DIV MUL DUP4 MSTORE SWAP2 PUSH1 0x20 ADD SWAP2 PUSH2 0x45D JUMP JUMPDEST DUP3 ADD SWAP2 SWAP1 PUSH1 0x0 MSTORE PUSH1 0x20 PUSH1 0x0 KECCAK256 SWAP1 JUMPDEST DUP2 SLOAD DUP2 MSTORE SWAP1 PUSH1 0x1 ADD SWAP1 PUSH1 0x20 ADD DUP1 DUP4 GT PUSH2 0x440 JUMPI DUP3 SWAP1 SUB PUSH1 0x1F AND DUP3 ADD SWAP2 JUMPDEST POP POP POP POP POP SWAP2 POP DUP1 DUP1 SLOAD PUSH2 0x470 SWAP1 PUSH2 0xE17 JUMP JUMPDEST DUP1 PUSH1 0x1F ADD PUSH1 0x20 DUP1 SWAP2 DIV MUL PUSH1 0x20 ADD PUSH1 0x40 MLOAD SWAP1 DUP2 ADD PUSH1 0x40 MSTORE DUP1 SWAP3 SWAP2 SWAP1 DUP2 DUP2 MSTORE PUSH1 0x20 ADD DUP3 DUP1 SLOAD PUSH2 0x49C SWAP1 PUSH2 0xE17 JUMP JUMPDEST DUP1 ISZERO PUSH2 0x4E9 JUMPI DUP1 PUSH1 0x1F LT PUSH2 0x4BE JUMPI PUSH2 0x100 DUP1 DUP4 SLOAD DIV MUL DUP4 MSTORE SWAP2 PUSH1 0x20 ADD SWAP2 PUSH2 0x4E9 JUMP JUMPDEST DUP3 ADD SWAP2 SWAP1 PUSH1 0x0 MSTORE PUSH1 0x20 PUSH1 0x0 KECCAK256 SWAP1 JUMPDEST DUP2 SLOAD DUP2 MSTORE SWAP1 PUSH1 0x1 ADD SWAP1 PUSH1 0x20 ADD DUP1 DUP4 GT PUSH2 0x4CC JUMPI DUP3 SWAP1 SUB PUSH1 0x1F AND DUP3 ADD SWAP2 JUMPDEST POP POP POP POP POP SWAP1 POP SWAP7 POP SWAP7 POP SWAP7 POP SWAP7 POP SWAP7 POP SWAP7 POP POP SWAP2 SWAP4 SWAP6 POP SWAP2 SWAP4 SWAP6 JUMP JUMPDEST PUSH1 0x0 PUSH1 0x40 MLOAD DUP1 PUSH1 0xC0 ADD PUSH1 0x40 MSTORE DUP1 DUP9 DUP2 MSTORE PUSH1 0x20 ADD DUP8 DUP2 MSTORE PUSH1 0x20 ADD DUP7 DUP2 MSTORE PUSH1 0x20 ADD DUP6 DUP2 MSTORE PUSH1 0x20 ADD DUP5 DUP2 MSTORE PUSH1 0x20 ADD DUP4 DUP2 MSTORE POP SWAP1 DUP1 PUSH1 0x1 DUP2 SLOAD ADD DUP1 DUP3 SSTORE DUP1 SWAP2 POP POP PUSH1 0x1 SWAP1 SUB SWAP1 PUSH1 0x0 MSTORE PUSH1 0x20 PUSH1 0x0 KECCAK256 SWAP1 PUSH1 0x6 MUL ADD PUSH1 0x0 SWAP1 SWAP2 SWAP1 SWAP2 SWAP1 SWAP2 POP PUSH1 0x0 DUP3 ADD MLOAD DUP2 PUSH1 0x0 ADD SWAP1 DUP1 MLOAD SWAP1 PUSH1 0x20 ADD SWAP1 PUSH2 0x57A SWAP3 SWAP2 SWAP1 PUSH2 0x99E JUMP JUMPDEST POP PUSH1 0x20 DUP3 ADD MLOAD DUP2 PUSH1 0x1 ADD SWAP1 DUP1 MLOAD SWAP1 PUSH1 0x20 ADD SWAP1 PUSH2 0x597 SWAP3 SWAP2 SWAP1 PUSH2 0x99E JUMP JUMPDEST POP PUSH1 0x40 DUP3 ADD MLOAD DUP2 PUSH1 0x2 ADD SWAP1 DUP1 MLOAD SWAP1 PUSH1 0x20 ADD SWAP1 PUSH2 0x5B4 SWAP3 SWAP2 SWAP1 PUSH2 0x99E JUMP JUMPDEST POP PUSH1 0x60 DUP3 ADD MLOAD DUP2 PUSH1 0x3 ADD SWAP1 DUP1 MLOAD SWAP1 PUSH1 0x20 ADD SWAP1 PUSH2 0x5D1 SWAP3 SWAP2 SWAP1 PUSH2 0x99E JUMP JUMPDEST POP PUSH1 0x80 DUP3 ADD MLOAD DUP2 PUSH1 0x4 ADD SWAP1 DUP1 MLOAD SWAP1 PUSH1 0x20 ADD SWAP1 PUSH2 0x5EE SWAP3 SWAP2 SWAP1 PUSH2 0x99E JUMP JUMPDEST POP PUSH1 0xA0 DUP3 ADD MLOAD DUP2 PUSH1 0x5 ADD SWAP1 DUP1 MLOAD SWAP1 PUSH1 0x20 ADD SWAP1 PUSH2 0x60B SWAP3 SWAP2 SWAP1 PUSH2 0x99E JUMP JUMPDEST POP POP POP POP POP POP POP POP POP JUMP JUMPDEST PUSH1 0x0 DUP1 DUP1 SLOAD SWAP1 POP SWAP1 POP SWAP1 JUMP JUMPDEST PUSH1 0x0 DUP2 DUP2 SLOAD DUP2 LT PUSH2 0x632 JUMPI PUSH1 0x0 DUP1 REVERT JUMPDEST SWAP1 PUSH1 0x0 MSTORE PUSH1 0x20 PUSH1 0x0 KECCAK256 SWAP1 PUSH1 0x6 MUL ADD PUSH1 0x0 SWAP2 POP SWAP1 POP DUP1 PUSH1 0x0 ADD DUP1 SLOAD PUSH2 0x655 SWAP1 PUSH2 0xE17 JUMP JUMPDEST DUP1 PUSH1 0x1F ADD PUSH1 0x20 DUP1 SWAP2 DIV MUL PUSH1 0x20 ADD PUSH1 0x40 MLOAD SWAP1 DUP2 ADD PUSH1 0x40 MSTORE DUP1 SWAP3 SWAP2 SWAP1 DUP2 DUP2 MSTORE PUSH1 0x20 ADD DUP3 DUP1 SLOAD PUSH2 0x681 SWAP1 PUSH2 0xE17 JUMP JUMPDEST DUP1 ISZERO PUSH2 0x6CE JUMPI DUP1 PUSH1 0x1F LT PUSH2 0x6A3 JUMPI PUSH2 0x100 DUP1 DUP4 SLOAD DIV MUL DUP4 MSTORE SWAP2 PUSH1 0x20 ADD SWAP2 PUSH2 0x6CE JUMP JUMPDEST DUP3 ADD SWAP2 SWAP1 PUSH1 0x0 MSTORE PUSH1 0x20 PUSH1 0x0 KECCAK256 SWAP1 JUMPDEST DUP2 SLOAD DUP2 MSTORE SWAP1 PUSH1 0x1 ADD SWAP1 PUSH1 0x20 ADD DUP1 DUP4 GT PUSH2 0x6B1 JUMPI DUP3 SWAP1 SUB PUSH1 0x1F AND DUP3 ADD SWAP2 JUMPDEST POP POP POP POP POP SWAP1 DUP1 PUSH1 0x1 ADD DUP1 SLOAD PUSH2 0x6E3 SWAP1 PUSH2 0xE17 JUMP JUMPDEST DUP1 PUSH1 0x1F ADD PUSH1 0x20 DUP1 SWAP2 DIV MUL PUSH1 0x20 ADD PUSH1 0x40 MLOAD SWAP1 DUP2 ADD PUSH1 0x40 MSTORE DUP1 SWAP3 SWAP2 SWAP1 DUP2 DUP2 MSTORE PUSH1 0x20 ADD DUP3 DUP1 SLOAD PUSH2 0x70F SWAP1 PUSH2 0xE17 JUMP JUMPDEST DUP1 ISZERO PUSH2 0x75C JUMPI DUP1 PUSH1 0x1F LT PUSH2 0x731 JUMPI PUSH2 0x100 DUP1 DUP4 SLOAD DIV MUL DUP4 MSTORE SWAP2 PUSH1 0x20 ADD SWAP2 PUSH2 0x75C JUMP JUMPDEST DUP3 ADD SWAP2 SWAP1 PUSH1 0x0 MSTORE PUSH1 0x20 PUSH1 0x0 KECCAK256 SWAP1 JUMPDEST DUP2 SLOAD DUP2 MSTORE SWAP1 PUSH1 0x1 ADD SWAP1 PUSH1 0x20 ADD DUP1 DUP4 GT PUSH2 0x73F JUMPI DUP3 SWAP1 SUB PUSH1 0x1F AND DUP3 ADD SWAP2 JUMPDEST POP POP POP POP POP SWAP1 DUP1 PUSH1 0x2 ADD DUP1 SLOAD PUSH2 0x771 SWAP1 PUSH2 0xE17 JUMP JUMPDEST DUP1 PUSH1 0x1F ADD PUSH1 0x20 DUP1 SWAP2 DIV MUL PUSH1 0x20 ADD PUSH1 0x40 MLOAD SWAP1 DUP2 ADD PUSH1 0x40 MSTORE DUP1 SWAP3 SWAP2 SWAP1 DUP2 DUP2 MSTORE PUSH1 0x20 ADD DUP3 DUP1 SLOAD PUSH2 0x79D SWAP1 PUSH2 0xE17 JUMP JUMPDEST DUP1 ISZERO PUSH2 0x7EA JUMPI DUP1 PUSH1 0x1F LT PUSH2 0x7BF JUMPI PUSH2 0x100 DUP1 DUP4 SLOAD DIV MUL DUP4 MSTORE SWAP2 PUSH1 0x20 ADD SWAP2 PUSH2 0x7EA JUMP JUMPDEST DUP3 ADD SWAP2 SWAP1 PUSH1 0x0 MSTORE PUSH1 0x20 PUSH1 0x0 KECCAK256 SWAP1 JUMPDEST DUP2 SLOAD DUP2 MSTORE SWAP1 PUSH1 0x1 ADD SWAP1 PUSH1 0x20 ADD DUP1 DUP4 GT PUSH2 0x7CD JUMPI DUP3 SWAP1 SUB PUSH1 0x1F AND DUP3 ADD SWAP2 JUMPDEST POP POP POP POP POP SWAP1 DUP1 PUSH1 0x3 ADD DUP1 SLOAD PUSH2 0x7FF SWAP1 PUSH2 0xE17 JUMP JUMPDEST DUP1 PUSH1 0x1F ADD PUSH1 0x20 DUP1 SWAP2 DIV MUL PUSH1 0x20 ADD PUSH1 0x40 MLOAD SWAP1 DUP2 ADD PUSH1 0x40 MSTORE DUP1 SWAP3 SWAP2 SWAP1 DUP2 DUP2 MSTORE PUSH1 0x20 ADD DUP3 DUP1 SLOAD PUSH2 0x82B SWAP1 PUSH2 0xE17 JUMP JUMPDEST DUP1 ISZERO PUSH2 0x878 JUMPI DUP1 PUSH1 0x1F LT PUSH2 0x84D JUMPI PUSH2 0x100 DUP1 DUP4 SLOAD DIV MUL DUP4 MSTORE SWAP2 PUSH1 0x20 ADD SWAP2 PUSH2 0x878 JUMP JUMPDEST DUP3 ADD SWAP2 SWAP1 PUSH1 0x0 MSTORE PUSH1 0x20 PUSH1 0x0 KECCAK256 SWAP1 JUMPDEST DUP2 SLOAD DUP2 MSTORE SWAP1 PUSH1 0x1 ADD SWAP1 PUSH1 0x20 ADD DUP1 DUP4 GT PUSH2 0x85B JUMPI DUP3 SWAP1 SUB PUSH1 0x1F AND DUP3 ADD SWAP2 JUMPDEST POP POP POP POP POP SWAP1 DUP1 PUSH1 0x4 ADD DUP1 SLOAD PUSH2 0x88D SWAP1 PUSH2 0xE17 JUMP JUMPDEST DUP1 PUSH1 0x1F ADD PUSH1 0x20 DUP1 SWAP2 DIV MUL PUSH1 0x20 ADD PUSH1 0x40 MLOAD SWAP1 DUP2 ADD PUSH1 0x40 MSTORE DUP1 SWAP3 SWAP2 SWAP1 DUP2 DUP2 MSTORE PUSH1 0x20 ADD DUP3 DUP1 SLOAD PUSH2 0x8B9 SWAP1 PUSH2 0xE17 JUMP JUMPDEST DUP1 ISZERO PUSH2 0x906 JUMPI DUP1 PUSH1 0x1F LT PUSH2 0x8DB JUMPI PUSH2 0x100 DUP1 DUP4 SLOAD DIV MUL DUP4 MSTORE SWAP2 PUSH1 0x20 ADD SWAP2 PUSH2 0x906 JUMP JUMPDEST DUP3 ADD SWAP2 SWAP1 PUSH1 0x0 MSTORE PUSH1 0x20 PUSH1 0x0 KECCAK256 SWAP1 JUMPDEST DUP2 SLOAD DUP2 MSTORE SWAP1 PUSH1 0x1 ADD SWAP1 PUSH1 0x20 ADD DUP1 DUP4 GT PUSH2 0x8E9 JUMPI DUP3 SWAP1 SUB PUSH1 0x1F AND DUP3 ADD SWAP2 JUMPDEST POP POP POP POP POP SWAP1 DUP1 PUSH1 0x5 ADD DUP1 SLOAD PUSH2 0x91B SWAP1 PUSH2 0xE17 JUMP JUMPDEST DUP1 PUSH1 0x1F ADD PUSH1 0x20 DUP1 SWAP2 DIV MUL PUSH1 0x20 ADD PUSH1 0x40 MLOAD SWAP1 DUP2 ADD PUSH1 0x40 MSTORE DUP1 SWAP3 SWAP2 SWAP1 DUP2 DUP2 MSTORE PUSH1 0x20 ADD DUP3 DUP1 SLOAD PUSH2 0x947 SWAP1 PUSH2 0xE17 JUMP JUMPDEST DUP1 ISZERO PUSH2 0x994 JUMPI DUP1 PUSH1 0x1F LT PUSH2 0x969 JUMPI PUSH2 0x100 DUP1 DUP4 SLOAD DIV MUL DUP4 MSTORE SWAP2 PUSH1 0x20 ADD SWAP2 PUSH2 0x994 JUMP JUMPDEST DUP3 ADD SWAP2 SWAP1 PUSH1 0x0 MSTORE PUSH1 0x20 PUSH1 0x0 KECCAK256 SWAP1 JUMPDEST DUP2 SLOAD DUP2 MSTORE SWAP1 PUSH1 0x1 ADD SWAP1 PUSH1 0x20 ADD DUP1 DUP4 GT PUSH2 0x977 JUMPI DUP3 SWAP1 SUB PUSH1 0x1F AND DUP3 ADD SWAP2 JUMPDEST POP POP POP POP POP SWAP1 POP DUP7 JUMP JUMPDEST DUP3 DUP1 SLOAD PUSH2 0x9AA SWAP1 PUSH2 0xE17 JUMP JUMPDEST SWAP1 PUSH1 0x0 MSTORE PUSH1 0x20 PUSH1 0x0 KECCAK256 SWAP1 PUSH1 0x1F ADD PUSH1 0x20 SWAP1 DIV DUP2 ADD SWAP3 DUP3 PUSH2 0x9CC JUMPI PUSH1 0x0 DUP6 SSTORE PUSH2 0xA13 JUMP JUMPDEST DUP3 PUSH1 0x1F LT PUSH2 0x9E5 JUMPI DUP1 MLOAD PUSH1 0xFF NOT AND DUP4 DUP1 ADD OR DUP6 SSTORE PUSH2 0xA13 JUMP JUMPDEST DUP3 DUP1 ADD PUSH1 0x1 ADD DUP6 SSTORE DUP3 ISZERO PUSH2 0xA13 JUMPI SWAP2 DUP3 ADD JUMPDEST DUP3 DUP2 GT ISZERO PUSH2 0xA12 JUMPI DUP3 MLOAD DUP3 SSTORE SWAP2 PUSH1 0x20 ADD SWAP2 SWAP1 PUSH1 0x1 ADD SWAP1 PUSH2 0x9F7 JUMP JUMPDEST JUMPDEST POP SWAP1 POP PUSH2 0xA20 SWAP2 SWAP1 PUSH2 0xA24 JUMP JUMPDEST POP SWAP1 JUMP JUMPDEST JUMPDEST DUP1 DUP3 GT ISZERO PUSH2 0xA3D JUMPI PUSH1 0x0 DUP2 PUSH1 0x0 SWAP1 SSTORE POP PUSH1 0x1 ADD PUSH2 0xA25 JUMP JUMPDEST POP SWAP1 JUMP JUMPDEST PUSH1 0x0 PUSH2 0xA54 PUSH2 0xA4F DUP5 PUSH2 0xD7F JUMP JUMPDEST PUSH2 0xD4E JUMP JUMPDEST SWAP1 POP DUP3 DUP2 MSTORE PUSH1 0x20 DUP2 ADD DUP5 DUP5 DUP5 ADD GT ISZERO PUSH2 0xA6C JUMPI PUSH1 0x0 DUP1 REVERT JUMPDEST PUSH2 0xA77 DUP5 DUP3 DUP6 PUSH2 0xDD5 JUMP JUMPDEST POP SWAP4 SWAP3 POP POP POP JUMP JUMPDEST PUSH1 0x0 DUP3 PUSH1 0x1F DUP4 ADD SLT PUSH2 0xA90 JUMPI PUSH1 0x0 DUP1 REVERT JUMPDEST DUP2 CALLDATALOAD PUSH2 0xAA0 DUP5 DUP3 PUSH1 0x20 DUP7 ADD PUSH2 0xA41 JUMP JUMPDEST SWAP2 POP POP SWAP3 SWAP2 POP POP JUMP JUMPDEST PUSH1 0x0 DUP2 CALLDATALOAD SWAP1 POP PUSH2 0xAB8 DUP2 PUSH2 0xEB8 JUMP JUMPDEST SWAP3 SWAP2 POP POP JUMP JUMPDEST PUSH1 0x0 DUP1 PUSH1 0x0 DUP1 PUSH1 0x0 DUP1 PUSH1 0xC0 DUP8 DUP10 SUB SLT ISZERO PUSH2 0xAD7 JUMPI PUSH1 0x0 DUP1 REVERT JUMPDEST PUSH1 0x0 DUP8 ADD CALLDATALOAD PUSH8 0xFFFFFFFFFFFFFFFF DUP2 GT ISZERO PUSH2 0xAF1 JUMPI PUSH1 0x0 DUP1 REVERT JUMPDEST PUSH2 0xAFD DUP10 DUP3 DUP11 ADD PUSH2 0xA7F JUMP JUMPDEST SWAP7 POP POP PUSH1 0x20 DUP8 ADD CALLDATALOAD PUSH8 0xFFFFFFFFFFFFFFFF DUP2 GT ISZERO PUSH2 0xB1A JUMPI PUSH1 0x0 DUP1 REVERT JUMPDEST PUSH2 0xB26 DUP10 DUP3 DUP11 ADD PUSH2 0xA7F JUMP JUMPDEST SWAP6 POP POP PUSH1 0x40 DUP8 ADD CALLDATALOAD PUSH8 0xFFFFFFFFFFFFFFFF DUP2 GT ISZERO PUSH2 0xB43 JUMPI PUSH1 0x0 DUP1 REVERT JUMPDEST PUSH2 0xB4F DUP10 DUP3 DUP11 ADD PUSH2 0xA7F JUMP JUMPDEST SWAP5 POP POP PUSH1 0x60 DUP8 ADD CALLDATALOAD PUSH8 0xFFFFFFFFFFFFFFFF DUP2 GT ISZERO PUSH2 0xB6C JUMPI PUSH1 0x0 DUP1 REVERT JUMPDEST PUSH2 0xB78 DUP10 DUP3 DUP11 ADD PUSH2 0xA7F JUMP JUMPDEST SWAP4 POP POP PUSH1 0x80 DUP8 ADD CALLDATALOAD PUSH8 0xFFFFFFFFFFFFFFFF DUP2 GT ISZERO PUSH2 0xB95 JUMPI PUSH1 0x0 DUP1 REVERT JUMPDEST PUSH2 0xBA1 DUP10 DUP3 DUP11 ADD PUSH2 0xA7F JUMP JUMPDEST SWAP3 POP POP PUSH1 0xA0 DUP8 ADD CALLDATALOAD PUSH8 0xFFFFFFFFFFFFFFFF DUP2 GT ISZERO PUSH2 0xBBE JUMPI PUSH1 0x0 DUP1 REVERT JUMPDEST PUSH2 0xBCA DUP10 DUP3 DUP11 ADD PUSH2 0xA7F JUMP JUMPDEST SWAP2 POP POP SWAP3 SWAP6 POP SWAP3 SWAP6 POP SWAP3 SWAP6 JUMP JUMPDEST PUSH1 0x0 PUSH1 0x20 DUP3 DUP5 SUB SLT ISZERO PUSH2 0xBE9 JUMPI PUSH1 0x0 DUP1 REVERT JUMPDEST PUSH1 0x0 PUSH2 0xBF7 DUP5 DUP3 DUP6 ADD PUSH2 0xAA9 JUMP JUMPDEST SWAP2 POP POP SWAP3 SWAP2 POP POP JUMP JUMPDEST PUSH1 0x0 PUSH2 0xC0B DUP3 PUSH2 0xDAF JUMP JUMPDEST PUSH2 0xC15 DUP2 DUP6 PUSH2 0xDBA JUMP JUMPDEST SWAP4 POP PUSH2 0xC25 DUP2 DUP6 PUSH1 0x20 DUP7 ADD PUSH2 0xDE4 JUMP JUMPDEST PUSH2 0xC2E DUP2 PUSH2 0xEA7 JUMP JUMPDEST DUP5 ADD SWAP2 POP POP SWAP3 SWAP2 POP POP JUMP JUMPDEST PUSH1 0x0 PUSH2 0xC46 PUSH1 0xD DUP4 PUSH2 0xDBA JUMP JUMPDEST SWAP2 POP PUSH32 0x496E76616C696420696E64657800000000000000000000000000000000000000 PUSH1 0x0 DUP4 ADD MSTORE PUSH1 0x20 DUP3 ADD SWAP1 POP SWAP2 SWAP1 POP JUMP JUMPDEST PUSH2 0xC82 DUP2 PUSH2 0xDCB JUMP JUMPDEST DUP3 MSTORE POP POP JUMP JUMPDEST PUSH1 0x0 PUSH1 0xC0 DUP3 ADD SWAP1 POP DUP2 DUP2 SUB PUSH1 0x0 DUP4 ADD MSTORE PUSH2 0xCA2 DUP2 DUP10 PUSH2 0xC00 JUMP JUMPDEST SWAP1 POP DUP2 DUP2 SUB PUSH1 0x20 DUP4 ADD MSTORE PUSH2 0xCB6 DUP2 DUP9 PUSH2 0xC00 JUMP JUMPDEST SWAP1 POP DUP2 DUP2 SUB PUSH1 0x40 DUP4 ADD MSTORE PUSH2 0xCCA DUP2 DUP8 PUSH2 0xC00 JUMP JUMPDEST SWAP1 POP DUP2 DUP2 SUB PUSH1 0x60 DUP4 ADD MSTORE PUSH2 0xCDE DUP2 DUP7 PUSH2 0xC00 JUMP JUMPDEST SWAP1 POP DUP2 DUP2 SUB PUSH1 0x80 DUP4 ADD MSTORE PUSH2 0xCF2 DUP2 DUP6 PUSH2 0xC00 JUMP JUMPDEST SWAP1 POP DUP2 DUP2 SUB PUSH1 0xA0 DUP4 ADD MSTORE PUSH2 0xD06 DUP2 DUP5 PUSH2 0xC00 JUMP JUMPDEST SWAP1 POP SWAP8 SWAP7 POP POP POP POP POP POP POP JUMP JUMPDEST PUSH1 0x0 PUSH1 0x20 DUP3 ADD SWAP1 POP DUP2 DUP2 SUB PUSH1 0x0 DUP4 ADD MSTORE PUSH2 0xD2C DUP2 PUSH2 0xC39 JUMP JUMPDEST SWAP1 POP SWAP2 SWAP1 POP JUMP JUMPDEST PUSH1 0x0 PUSH1 0x20 DUP3 ADD SWAP1 POP PUSH2 0xD48 PUSH1 0x0 DUP4 ADD DUP5 PUSH2 0xC79 JUMP JUMPDEST SWAP3 SWAP2 POP POP JUMP JUMPDEST PUSH1 0x0 PUSH1 0x40 MLOAD SWAP1 POP DUP2 DUP2 ADD DUP2 DUP2 LT PUSH8 0xFFFFFFFFFFFFFFFF DUP3 GT OR ISZERO PUSH2 0xD75 JUMPI PUSH2 0xD74 PUSH2 0xE78 JUMP JUMPDEST JUMPDEST DUP1 PUSH1 0x40 MSTORE POP SWAP2 SWAP1 POP JUMP JUMPDEST PUSH1 0x0 PUSH8 0xFFFFFFFFFFFFFFFF DUP3 GT ISZERO PUSH2 0xD9A JUMPI PUSH2 0xD99 PUSH2 0xE78 JUMP JUMPDEST JUMPDEST PUSH1 0x1F NOT PUSH1 0x1F DUP4 ADD AND SWAP1 POP PUSH1 0x20 DUP2 ADD SWAP1 POP SWAP2 SWAP1 POP JUMP JUMPDEST PUSH1 0x0 DUP2 MLOAD SWAP1 POP SWAP2 SWAP1 POP JUMP JUMPDEST PUSH1 0x0 DUP3 DUP3 MSTORE PUSH1 0x20 DUP3 ADD SWAP1 POP SWAP3 SWAP2 POP POP JUMP JUMPDEST PUSH1 0x0 DUP2 SWAP1 POP SWAP2 SWAP1 POP JUMP JUMPDEST DUP3 DUP2 DUP4 CALLDATACOPY PUSH1 0x0 DUP4 DUP4 ADD MSTORE POP POP POP JUMP JUMPDEST PUSH1 0x0 JUMPDEST DUP4 DUP2 LT ISZERO PUSH2 0xE02 JUMPI DUP1 DUP3 ADD MLOAD DUP2 DUP5 ADD MSTORE PUSH1 0x20 DUP2 ADD SWAP1 POP PUSH2 0xDE7 JUMP JUMPDEST DUP4 DUP2 GT ISZERO PUSH2 0xE11 JUMPI PUSH1 0x0 DUP5 DUP5 ADD MSTORE JUMPDEST POP POP POP POP JUMP JUMPDEST PUSH1 0x0 PUSH1 0x2 DUP3 DIV SWAP1 POP PUSH1 0x1 DUP3 AND DUP1 PUSH2 0xE2F JUMPI PUSH1 0x7F DUP3 AND SWAP2 POP JUMPDEST PUSH1 0x20 DUP3 LT DUP2 EQ ISZERO PUSH2 0xE43 JUMPI PUSH2 0xE42 PUSH2 0xE49 JUMP JUMPDEST JUMPDEST POP SWAP2 SWAP1 POP JUMP JUMPDEST PUSH32 0x4E487B7100000000000000000000000000000000000000000000000000000000 PUSH1 0x0 MSTORE PUSH1 0x22 PUSH1 0x4 MSTORE PUSH1 0x24 PUSH1 0x0 REVERT JUMPDEST PUSH32 0x4E487B7100000000000000000000000000000000000000000000000000000000 PUSH1 0x0 MSTORE PUSH1 0x41 PUSH1 0x4 MSTORE PUSH1 0x24 PUSH1 0x0 REVERT JUMPDEST PUSH1 0x0 PUSH1 0x1F NOT PUSH1 0x1F DUP4 ADD AND SWAP1 POP SWAP2 SWAP1 POP JUMP JUMPDEST PUSH2 0xEC1 DUP2 PUSH2 0xDCB JUMP JUMPDEST DUP2 EQ PUSH2 0xECC JUMPI PUSH1 0x0 DUP1 REVERT JUMPDEST POP JUMP INVALID LOG2 PUSH5 0x6970667358 0x22 SLT KECCAK256 0x4E 0xCC 0xBF 0x1F 0xF6 0xDB SWAP12 0x2E 0xBB 0xDC LT BALANCE CODECOPY PC 0xB5 0xC2 0xD1 0xB8 DUP6 0x2F 0xD2 DUP16 0xB3 DUP3 0x28 PUSH30 0xC1D479757A6564736F6C6343000800003300000000000000000000000000 "},"methodIdentifiers":{"addStudentRecord(string,string,string,string,string,string)":"c2912076","getRecordCount()":"ca267f28","getStudentRecord(uint256)":"15982a2a","studentRecords(uint256)":"e91903a7"}}}}}